:020000040800F2
:10000000900B00202902000871360008312A0008F0
:10001000C5310008B1040008614800080000000074
:10002000000000000000000000000000113900087E
:10003000610700080000000073360008B5390008A9
:10004000430200084302000843020008430200087C
:10005000430200084302000843020008430200086C
:10006000430200084302000843020008430200085C
:10007000430200084302000843020008430200084C
:10008000430200084302000843020008430200083C
:10009000430200084302000843020008430200082C
:1000A000430200084302000843020008430200081C
:1000B000430200084302000843020008430200080C
:1000C00043020008430200084302000843020008FC
:1000D0004302000821480008430200084148000884
:1000E00043020008430200084302000843020008DC
:1000F00043020008430200084302000843020008CC
:1001000043020008430200084302000843020008BB
:10011000430200084302000843020008593A00085D
:100120004302000843020008CD060008430200080D
:10013000430200084302000843020008430200088B
:10014000430200084302000843020008430200087B
:100150004302000843020008D906000843020008D1
:10016000430200084302000843020008430200085B
:100170004302000843020008430200080000000098
:10018000430200084302000800F002F800F03CF8C7
:100190000AA090E8000C82448344AAF10107DA45E2
:1001A00001D100F031F8AFF2090EBAE80F0013F0F8
:1001B000010F18BFFB1A43F0010318472C48000039
:1001C0004C480000103A24BF78C878C1FAD85207CA
:1001D00024BF30C830C144BF04680C6070470000C1
:1001E0000023002400250026103A28BF78C1FBD840
:1001F000520728BF30C148BF0B6070471FB504F0DD
:10020000DDFB1FBD10B510BD00F0CFF81146FFF7A4
:10021000F5FF04F089FB00F0EDF803B4FFF7F2FFFF
:1002200003BC00F0F5F80000094880470948004782
:10023000FEE7FEE7FEE7FEE7FEE7FEE7FEE7FEE796
:10024000FEE7FEE704480549054A064B70470000F3
:10025000493A00088901000890050020900B002011
:10026000900700209007002053EA020C00F06980FC
:100270002DE9F04B4FF00006002B1FBFB3FA83F5BA
:1002800003FA05F424FA05F65E4012BF1643B2FAEB
:1002900082F502FA05F4C5F120051EBF22FA05FC1D
:1002A00044EA0C04203556EA044C4FEA144418BFC3
:1002B000641C4FF000084FF00009904271EB030CF2
:1002C00039D3002919BFB1FA81F701FA07F6B0FA5C
:1002D00080F700FA07F6C7F120071EBF20FA07FCD7
:1002E00046EA0C062037B6FBF4FCA7EB0507103FE7
:1002F00007F01F0BCBF120060CFA0BFB2CFA06F6CD
:1003000044BFB3460026202FA4BF5E464FF0000B2B
:100310005BEA060C08BF4FF0010B19EB0B09ABFBB6
:10032000027C48EB0608C01B06FB02CC0BFB03CC8F
:1003300071EB0C01C1E70B46024641464846BDE859
:10034000F08B13B54FF000004FF00001AFF30080C9
:10035000BDE81C4070474FF0000200B513469446BC
:100360009646203922BFA0E80C50A0E80C50B1F10D
:100370002001BFF4F7AF090728BFA0E80C5048BF21
:100380000CC05DF804EB890028BF40F8042B08BFBF
:10039000704748BF20F8022B11F0804F18BF00F8BB
:1003A000012B7047704770477047754600F02CF876
:1003B000AE4605006946534620F00700854618B052
:1003C00020B5FFF73FFFBDE820404FF000064FF09B
:1003D00000074FF000084FF0000B21F00701AC467A
:1003E000ACE8C009ACE8C009ACE8C009ACE8C00999
:1003F0008D46704710B50446AFF300802046BDE837
:100400001040FFF70ABF0000004870472C0500208D
:1004100001491820ABBEFEE726000200704700002D
:10042000DFED1F2A9FED1F3ADFED1F3A00B5B0EE5A
:10043000622AF0EE621AB0EE431AF0EE630AB1EEF1
:10044000000A1A4804F058FA1848B0EE622AF0EE92
:10045000621AB0EE431AF0EE630AB1EE000A2430DD
:1004600004F04AFA1148B0EE622AF0EE621AB0EED9
:10047000431AF0EE630AB1EE000A483004F03CFA89
:100480000A48B0EE622AF0EE621AB0EE431AF0EEBD
:10049000630AB1EE000A6C305DF804EB04F02CBA8C
:1004A0000000BE4200000000CDCC4C3E14010020F4
:1004B000FEE7000002494860C8604861C8617047B3
:1004C000D000002010B503F0D5F803F047F903F091
:1004D000BBFC03F071FC2A4C2A4894ED000AF8EEAC
:1004E000C00A94ED010AB8EEC00A04F0BAF994ED1E
:1004F000020A2448F8EEC00A94ED030A2430B8EE4C
:10050000C00A04F0AEF994ED040A1E48F8EEC00AE1
:1005100094ED050A4830B8EEC00A04F0A2F994ED53
:10052000060A1848F8EEC00A94ED070A6C30B8EED7
:10053000C00A04F096F9134C94ED070ABDEEC00A08
:1005400010EE100A02F06CFE94ED100ABDEEC00A27
:1005500010EE100A02F0B0FE94ED190ABDEEC00ACA
:1005600010EE100A02F0F4FE94ED220ABDEEC00A6D
:1005700010EE100A02F038FFBDE8104002F002BB96
:10058000D00000201401002010B502F053FA02F050
:1005900007FB002002F044FE002002F08DFE002048
:1005A00002F0D6FEBDE81040002002F01DBF0000A2
:1005B00010B5114C206808B902F0E4FA206840F246
:1005C0001941401E884201D803F0E7FB2068A0F2E1
:1005D0001B40B0F5617F01D203F0F0F8206840F2D3
:1005E0009E71884201DD02F0CDFA00F0BBF8BDE853
:1005F000104000F029BB00003800002007480068C8
:10060000012805D0022805D0032805D1FFF7D0BF67
:10061000FFF758BFFFF7B8BF704700006800002021
:10062000024A5060D160D16150617047D000002013
:1006300010B50021084801F0F7FE0421064801F03A
:10064000F3FE0821044801F0EFFEBDE810400C2144
:10065000014801F0E9BE0000C40200200A4B00215D
:100660009A1E1888ED2809D0EE2809D0EF2809D065
:10067000EC2802D104205070198070470120FAE75D
:100680000220F8E70320F6E7080000200D48018863
:100690000D48EC290CD06C290CD0EF290CD0EE2998
:1006A0000CD0ED290CD0FF2901D100210170704739
:1006B0000521FBE70421F9E70321F7E70221F5E72C
:1006C0000121F3E77800002006000020014800F037
:1006D00099BC00006C040020014800F093BC0000AD
:1006E000CC04002001681823CAB2103AB2FBF3F21E
:1006F000054B6FF30901032A9B5CC36500D9091DF3
:100700008165084670470000C649000810B50146DB
:1007100000208B698A6A4FF0C07453B1B3F5005F53
:1007200015D072B1012A0CD0022A0AD0032A09D1AD
:1007300004E01AB1012A06D0022A03D1C96AC9010C
:1007400000D5012010BDC96AA142FAD010BD002A0F
:10075000F7D0012AF2D0022AF3D0032AF3D010BD39
:10076000704700000948B0F90200012807D00228AC
:1007700007D0032807D0042807D100F0E5B900F01E
:1007800027B800F0B7B800F047B97047280000203C
:100790000548B0F90600012803D0022803D102F071
:1007A000D5BE02F041BE7047280000200748B0F9CE
:1007B0000600012805D0022805D0032805D103F042
:1007C00037BD03F021BC03F09BBC7047280000201C
:1007D00070B5454CA4F12A05208830B900F09EFB85
:1007E00000F08EFB01202080288002F069FF28881D
:1007F0003E4C012812D11E2140F24A6000F0C0FA9E
:10080000606858B9E06848B9606938B9E06928B9E2
:1008100000F084FB00F074FB022028802888022866
:100820000FD11E2140F6DE0000F018FB606840B9D1
:10083000E06830B9606920B9E06910B9E868401C27
:10084000E86094ED000A2A48F8EEC00A94ED010A27
:10085000B8EEC00A04F005F894ED020A2448F8EE58
:10086000C00A94ED030A2430B8EEC00A03F0F9FF81
:1008700094ED040A1E48F8EEC00A94ED050A4830CB
:10088000B8EEC00A03F0EDFF94ED060A1848F8EE42
:10089000C00A94ED070A6C30B8EEC00A03F0E1FF1D
:1008A000134C94ED070ABDEEC00A10EE100A02F0D8
:1008B000B7FC94ED100ABDEEC00A10EE100A02F06B
:1008C000FBFC94ED190ABDEEC00A10EE100A02F00E
:1008D0003FFD94ED220ABDE87040BDEEC00A10EE67
:1008E000100A02F081BD000052000020D00000205C
:1008F0001401002070B5454CA4F12A05608830B978
:1009000000F00CFB00F0FCFA01206080288002F06F
:10091000D7FE28883E4C012812D11E2140F24C40BF
:1009200000F0F6F9606858B9E06848B9606938B90C
:10093000E06928B900F0F2FA00F0E2FA022028801B
:10094000288802280FD11E2140F6DE0000F04EFA62
:10095000606840B9E06830B9606920B9E06910B9F1
:10096000E868401CE86094ED000A2A48F8EEC00AE6
:1009700094ED010AB8EEC00A03F073FF94ED020A89
:100980002448F8EEC00A94ED030A2430B8EEC00AF9
:1009900003F067FF94ED040A1E48F8EEC00A94EDD8
:1009A000050A4830B8EEC00A03F05BFF94ED060A72
:1009B0001848F8EEC00A94ED070A6C30B8EEC00A89
:1009C00003F04FFF134C94ED070ABDEEC00A10EE82
:1009D000100A02F025FC94ED100ABDEEC00A10EEDC
:1009E000100A02F069FC94ED190ABDEEC00A10EE7F
:1009F000100A02F0ADFC94ED220ABDE87040BDEE95
:100A0000C00A10EE100A02F0EFBC000052000020F5
:100A1000D00000201401002070B5484CA4F12A0534
:100A2000A08830B900F07AFA00F06AFA0120A080BC
:100A3000288002F045FE2888414C012819D1142154
:100A40004FF47A7000F00AFA606890B9E06880B9F3
:100A5000606970B9E06960B96869401C68613228F2
:100A600007D100F05BFA00F04BFA0220288000204A
:100A70006861288802280FD1142141F6F42000F083
:100A80007FF9606840B9E06830B9606920B9E06911
:100A900010B9E868401CE86094ED000A2948F8EEB7
:100AA000C00A94ED010AB8EEC00A03F0DAFE94ED34
:100AB000020A2448F8EEC00A94ED030A2430B8EE86
:100AC000C00A03F0CEFE94ED040A1E48F8EEC00AF8
:100AD00094ED050A4830B8EEC00A03F0C2FE94ED6A
:100AE000060A1848F8EEC00A94ED070A6C30B8EE12
:100AF000C00A03F0B6FE134C94ED070ABDEEC00A1F
:100B000010EE100A02F08CFB94ED100ABDEEC00A44
:100B100010EE100A02F0D0FB94ED190ABDEEC00AE7
:100B200010EE100A02F014FC94ED220ABDE87040A9
:100B3000BDEEC00A10EE100A02F056BC52000020B2
:100B4000D00000201401002070B53C4CA4F12A050F
:100B5000E08830B900F0E2F900F0D2F90120E0803D
:100B6000288002F0ADFD2888354C012813D11E21C4
:100B700040F6980000F03AF9606860B9E06850B952
:100B8000606940B9E06930B9286940F2D57188429E
:100B900001DA401C286194ED000A2A48F8EEC00AE8
:100BA00094ED010AB8EEC00A03F05BFE94ED020A70
:100BB0002448F8EEC00A94ED030A2430B8EEC00AC7
:100BC00003F04FFE94ED040A1E48F8EEC00A94EDBF
:100BD000050A4830B8EEC00A03F043FE94ED060A59
:100BE0001848F8EEC00A94ED070A6C30B8EEC00A57
:100BF00003F037FE134C94ED070ABDEEC00A10EE69
:100C0000100A02F00DFB94ED100ABDEEC00A10EEC2
:100C1000100A02F051FB94ED190ABDEEC00A10EE65
:100C2000100A02F095FB94ED220ABDE87040BDEE7B
:100C3000C00A10EE100A02F0D7BB000052000020DC
:100C4000D0000020140100200648C168642907DD97
:100C50000021054AC160012111604188491C418081
:100C600070470000280000206800002006488169C5
:100C7000642907DD0021054A816101211160C188D5
:100C8000491CC18070470000280000206C00002033
:100C90000548C169642906DD0021044AC1610321B8
:100CA00011600421C18070472800002070000020DE
:100CB000F0B5154C42424B42D4E90067D0170025ED
:100CC0001249961B70EB070601DA4B6000E04D609D
:100CD000D4E90267961B70EB070601DACB6000E0EF
:100CE000CD60D4E90467961B70EB070601DA4B610F
:100CF00000E04D61D4E90664921BA04101DACB61AA
:100D0000F0BDCD61F0BD000090000020D0000020BB
:100D10002DE9F043DFF860804342DC17D8E9006C2E
:100D20004F420025154A9E1B74EB0C0601DA5760F2
:100D300000E05560C146D8F80880C617D9F80CC045
:100D4000B8EB00087CEB060C01DAD16000E0D5605E
:100D5000D9E9048CB8EB00007CEB060C01DA516198
:100D600000E05561D9E90601181A8C4102DAD76111
:100D7000BDE8F083D561FBE790000020D0000020A3
:100D80002DE9F043174C4FEAE0780025D4E90063E1
:100D9000154A361A73EB080301DA516000E055601A
:100DA000D4E9027CA1464342DC174E42DF1B74EBC0
:100DB0000C0701DAD66000E0D560D9E9047CDB1BC2
:100DC00074EB0C0401DA566100E05561D9E9064381
:100DD000201A73EB080302DAD161BDE8F083D56114
:100DE000FBE7000090000020D00000202DE9F04338
:100DF000DFF860804342DC17D8E9006C4F420025E1
:100E0000154A9E1B74EB0C0601DA576000E0556032
:100E1000C146D8F80880C617D9F80CC0B8EB00084E
:100E20007CEB060C01DAD16000E0D560D9E904C89A
:100E3000B3EB0C0374EB080401DA576100E0556171
:100E4000D9E90643201AB34102DAD161BDE8F08343
:100E5000D561FBE790000020D00000202DE9F04391
:100E6000174C4FEAE0780025D4E90063154A361A9A
:100E700073EB080301DA516000E05560D4E9027CAD
:100E8000A1464342DC174E42DF1B74EB0C0701DA2C
:100E9000D66000E0D560D9E904C7BCEB000077EB71
:100EA000080701DA516100E05561D9E90601181A15
:100EB0008C4102DAD661BDE8F083D561FBE7000022
:100EC00090000020D000002010B53C21084801F01F
:100ED0009DF83C21074801F099F83C21064801F0B3
:100EE00095F8BDE810403C21044801F08FB800009F
:100EF000A4010020EC010020340200207C0200202C
:100F000005480021C0E90011C0E90211C0E904113F
:100F1000C0E906117047000090000020064900203B
:100F200009684862054909684862054909684862D4
:100F30000449096848627047A4010020EC010020C0
:100F4000340200207C02002072B6FEE72DE9F04159
:100F50000446876D00F092FA064694F835000025A5
:100F6000022806D08020606584F834500120BDE856
:100F7000F0812068016821F0160101602068416954
:100F800021F080014161206C08B9A06C20B120687B
:100F9000016821F0080101602068016821F0010169
:100FA00001600CE000F06AFA801B052807D92020B8
:100FB0006065032084F8350084F83450D7E7206852
:100FC0000068C007EED194F85C103F208840B860FC
:100FD000012084F8350084F834500020C7E790F8E9
:100FE0003510022903D08021416501207047052179
:100FF00080F835100068016821F0010101600020CF
:10100000704700002DE9F84304464FF00009CDF881
:10101000009063484FF41651A56D0068B0FBF1F7DE
:101020002E6894F85C10082000FA01F131420FD0CC
:1010300021680A6852070BD50A6822F004020A6088
:1010400094F85C108840A860606D40F00100606515
:1010500094F85C104FF0010808FA01F0304208D013
:1010600021684969090604D5A860606D40F0020056
:10107000606594F85C1004208840304208D02168F4
:101080000968890704D5A860606D40F004006065B8
:1010900094F85C1010208840304218D0216809680C
:1010A000090714D5A86020680168490304D50068C1
:1010B000000308D5A16C07E00168C90503D40168E5
:1010C00021F008010160216C09B12046884794F89D
:1010D0005C1020208840304231D021680968C90660
:1010E0002DD5A86094F8350005282068016806D041
:1010F000490347D5006800031DD4616C1CE021F052
:10110000160101602068416921F080014161206C75
:1011100008B9A06C20B12068016821F008010160C5
:1011200094F85C103F208840A86084F8358084F8EB
:101130003490216D1FE0E16B09B120468847606D56
:1011400000282BD0606DC00714D0052084F835002E
:101150002068016821F0010101600098401C0090A6
:10116000B84203D820680068C007F6D184F83580FB
:1011700084F83490E16C002910D001B02046BDE81D
:10118000F04308470168C905D5D4016821F0100172
:10119000016084F8358084F83490CCE7BDE8F883AA
:1011A0008C0000202DE9F041044600F067F9064666
:1011B0005CB1022084F83500002584F834502068A2
:1011C000016821F0010101600DE00120BDE8F0811E
:1011D00000F054F9801B052805D920206065032004
:1011E00084F83500F2E720680068C007F0D1226873
:1011F000116820480140D4E901031843D4E90336BB
:101200003343184363691843A3691843E3691843D8
:10121000236A18430843616A042903D1D4E90B13F4
:1012200019430843106020684069666A20F007018E
:1012300030460E43012704280CD1A06A0643E06A19
:1012400040B12046FFF762FA20B14020606584F883
:101250003570BAE7206846612046FFF743FA94F8F4
:101260005C203F2191408160656584F835700020E5
:10127000ACE700003F8010F02DE9F84FDFF8BCA18B
:10128000002201250AF1040B03264FF00F090BF190
:10129000040E00BF0B6805FA02F42340A34270D18C
:1012A0000F7907F00307012F01D0022F16D18768AD
:1012B0004FEA420806FA08FC27EA0C07D1F80CC0EE
:1012C0000CFA08FC4CEA070CC0F808C04768A743B2
:1012D0000C79C4F3001494403C4344600C79E4431B
:1012E000A4070AD0C4684FEA420C06FA0CF7BC43C4
:1012F0008F6807FA0CF72743C7600C7904F00304E2
:10130000022C12D1D40800EB840CDCF820405707E3
:10131000FF0E09FA07F824EA0804D1F8108008FA49
:1013200007F848EA0408CCF8208004684FEA420C29
:1013300006FA0CF7BC430F7907F0030707FA0CF71E
:10134000274307604C6814F4403F70D03C4C27683A
:1013500047F480472760246822F0030704F48044A0
:101360000094384C07EB040CDCF8084897074FEA68
:10137000177809FA08F7BC43334FB84202D1002767
:1013800024E054E0314FB84201D101271EE0304F34
:10139000B84201D1022719E02E4FB84201D10327EC
:1013A00014E02D4FB84201D104270FE02B4FB84273
:1013B00001D105270AE02A4FB84201D1062705E0EE
:1013C000284FB84201D1072700E0082707FA08F79D
:1013D0002743CCF80878DAF800405746D1F804C023
:1013E0009C435FEACC3C00D51C433C60DBF80040EA
:1013F0005F46D1F804C09C435FEA8C3C00D51C4397
:101400003C60DEF800407746D1F804C09C435FEAB8
:10141000CC2C00D51C433C60084F0C373C68D1F8FD
:1014200004C09C435FEA8C2C00D51C433C60521CDA
:10143000102AFFF42FAFBDE8F88F0000003C0140F8
:1014400044380240003001400000024000040240E5
:1014500000080240000C024000100240001402404C
:1014600000180240001C02400069084000D0012022
:1014700070470AB1816170470904FBE70148806841
:101480007047000080000020024881680278114403
:1014900081607047800000200B4810B5016841F45E
:1014A00000710160016841F480610160016841F4EC
:1014B00080710160032000F06FF80F2000F006F843
:1014C00000F024F8002010BD003C024070B50D4D26
:1014D00004464FF47A712878B1FBF0F00A490968A4
:1014E000B1FBF0F000F00CFB48B9102C07D2002241
:1014F0002146501E00F030F800206C6070BD0120C5
:1015000070BD0000800000208C0000200A4808B553
:10151000016841F480410160006800F4804000905F
:101520000548001F016841F080510160006800F02B
:101530008050009008BD000044380240002809DBBC
:1015400000F01F02012191404009800000F1E020DD
:10155000C0F8001170470000F0B40E4B1B680C4639
:10156000C3F30223C3F10705042D00D90425191D77
:10157000072901D2002300E0DB1E012606FA05F14F
:10158000491E214099409E40761E16403143F0BCD2
:1015900003F0B9B90CED00E0064900F00702086855
:1015A0004FF6FF03184040EA0220034A1043086048
:1015B000704700000CED00E00000FA052DE9F0474F
:1015C0000E46050065D0DFF81481D8F80000F7B2A8
:1015D00000F00700B04207D288F80070D8F8000089
:1015E00000F00700B04254D128683D4C810712D565
:1015F000400703D5206840F4E050206028780007B9
:1016000003D5206840F4604020602068A96820F07D
:10161000F000084320602878C0072DD03049686862
:101620000839012812D0022813D0032811D00968E4
:10163000890700292DDA216821F003010143216087
:10164000FFF71CFF814641F2883A0EE009688903E2
:10165000EFE709688901ECE7FFF710FFA0EB09014C
:10166000514502D90320BDE8F0872068696800F081
:101670000C00B0EB810FEFD1D8F80010404601F01C
:101680000701B14207D90770006800F00700B042B7
:1016900001D00120E7E72878400705D52068E968F0
:1016A00020F4E050084320602878000706D5206821
:1016B000296920F4604040EAC100206000F038F859
:1016C0002168084AC1F30311515CC840064908600B
:1016D00006480068FFF7FAFE0020C4E7003C02401D
:1016E00008380240CE4900088C0000208400002009
:1016F0000448054900680968044AC1F38221515C25
:10170000C84070478C00002008380240DE490008BD
:101710000448054900680968044AC1F34231515C34
:10172000C84070478C00002008380240DE4900089D
:10173000154810B5006810F00C02144813D0144975
:10174000042A0FD0082A0ED10F4C241F22682368C8
:1017500002F03F025B0207D52068C0F38810A0FBAF
:10176000010106E0084610BD2168C1F38811A1FB04
:1017700000010023FEF778FD2168C1F30141491CF7
:101780004900B0FBF1F010BD083802400024F4001D
:10179000001BB7002DE9F84F04006ED02078DFF869
:1017A0004C93C007A9F104054AD009F1040001686F
:1017B000C1F38101012908D00068C0F3810002282B
:1017C0000AD1D9F80000400206D52868800337D531
:1017D00060680028E1D033E06068B0F5803F10D049
:1017E000B0F5A02F286810D020F480302860286839
:1017F00020F4802028606068A8B1FFF73FFE06460D
:101800000DE0286840F48030F4E740F48020286040
:10181000F7E700BFFFF732FE801B642873D8286803
:101820008003F7D50CE0FFF729FE064605E000BF70
:10183000FFF724FE801B6428F0D828688003F7D4C3
:101840002078DFF8AC8280074FF0000A3ED5A74829
:10185000001D016811F00C0F08D00068C0F3810072
:1018600002280BD1D9F80000400207D4286880076D
:1018700016D5E068012800D112E033E1E068B8B184
:101880000120C8F80000FFF7F9FD064605E000BF9B
:10189000FFF7F4FD801B0228C0D828688007F7D521
:1018A0002868216920F0F80040EAC10028600DE0B6
:1018B000C8F800A0FFF7E2FD064604E0FFF7DEFDF2
:1018C000801B02281FD828688007F7D420780007DB
:1018D00022D5864F87486169703771B10121016057
:1018E000FFF7CCFD064604E0FFF7C8FD801B022889
:1018F00009D838688007F7D50EE0C0F800A0FFF7D8
:10190000BDFD064605E082E0FFF7B8FD801B02281A
:101910007DD838688007F7D42078400768D5DFF88D
:10192000CCB100270BF13C0BDBF80000C0000BD45E
:10193000DBF8001041F08051CBF80010DBF800001C
:10194000012700F0805000906B4E3068C00510D425
:10195000306840F480703060FFF790FD009005E043
:10196000FFF78CFD0099401A022850D83068C00556
:10197000F6D55E4EA0686C3601280FD00528306879
:1019800010D020F001003060306820F0040030609A
:10199000A068B8B1FFF772FD00900FE0306840F02A
:1019A0000100F4E740F004003060F7E7FFF766FD60
:1019B0000099411A41F28830814266D83068800728
:1019C000F4D50EE0FFF75AFD009007E0FFF756FD53
:1019D0000099411A41F28830814256D83068800718
:1019E000F4D42FB1DBF8001021F08051CBF80010B7
:1019F000A069C8B33D49091D0968C1F381010229E5
:101A00004AD00228504607D0C8F8600000E03CE009
:101A1000FFF734FD04463BE04746C8F86000FFF797
:101A20002DFD064605E000BFFFF728FD801B0228BC
:101A30002BD828688001F7D4D4E907010843A16AAC
:101A40002E4A490802EB0141626A41EA82110843C9
:101A500094F82C1040EA0161C9F8001001203866A2
:101A6000FFF70CFD044606E03EE000BFFFF706FD71
:101A7000001B022809D828688001F7D534E000BF90
:101A8000FFF7FCFC001B022802D90320BDE8F88FF9
:101A900028688001F4D427E00128F7D0D9F80000A5
:101AA000E26900F4800191421CD1226A00F03F01FA
:101AB000914217D147F6C071626A0140B1EB821FB3
:101AC00010D1A26A4FF0FF3300F4403103EB520211
:101AD000B1EB024F06D194F82C1000F07060B0EB1F
:101AE000016F01D00120D1E70020CFE70438024088
:101AF00000004742800E4742007000400000FFFF98
:101B000010B5401EB0F1807F01D3012010BD4FF011
:101B1000E02460610F21601702F0F5FE0020A06153
:101B200007202061002010BD7047704710B590F865
:101B30003C20012A22D0012280F83C20CA688C680F
:101B400022F4407222434C6822F4806222430C68E3
:101B500022F4006222430C6922F4805222434C6931
:101B600022F400522243C969002322F480420A432E
:101B700001684A6480F83C30002010BD022010BD8E
:101B800070B590F83C20012A32D0012480F83C4006
:101B9000022280F83D2003685A689D6822F0700692
:101BA0000A6832435A60134B02689A4214D0B2F169
:101BB000804F11D0104B9A420ED0104B9A420BD04E
:101BC0000F4B9A4208D00F4B9A4205D00E4B9A42C7
:101BD00002D00E4B9A4204D1496825F08003194384
:101BE000916080F83D40002180F83C10084670BDAF
:101BF000022070BD000001400004004000080040C9
:101C0000000C00400004014000400140001800406A
:101C100010B5040003D094F83D0010B107E0012096
:101C200010BD002084F83C00204600F01FF8022080
:101C300084F83D00211D206801F046FF012084F852
:101C4000460084F83E0084F83F0084F8400084F8A1
:101C5000410084F8420084F8430084F8440084F88A
:101C6000450084F83D00002010BD000008B5006864
:101C70001149884212D11148016841F020010160E8
:101C80000068002200F02000009011463720FFF786
:101C900063FCBDE808403720FFF750BC0849884284
:101CA00009D10648001D016841F4803101600068D7
:101CB00000F48030009008BD00140040403802401D
:101CC0000040014090F83D10012901D001207047EB
:101CD000022180F83D100168CA6842F00102CA6022
:101CE00000681149884214D0B0F1804F11D00F49DB
:101CF00088420ED00E4988420BD00E49884208D047
:101D00000D49884205D00D49884202D00C498842CD
:101D100004D1816801F00701062903D0016841F070
:101D200001010160002070470000014000040040F4
:101D300000080040000C0040000401400040014049
:101D40000018004070B5044690F83C0000250128BA
:101D500017D0012684F83C60022084F83D002068FA
:101D6000826822F0770222F47F428260086850285D
:101D700038D00DDC20284FD005DC90B3102811D1CD
:101D80004AE0022070BD302846D040280AD13BE00E
:101D900060282FD070280DD0B0F5805F03D0B0F54B
:101DA000005F12D0012584F83D60002084F83C00DB
:101DB000284670BDCB68D1E90121206801F0F5FE0D
:101DC0002068816841F0770109E0CB68D1E9012101
:101DD000206801F0EAFE2068816841F4804181605A
:101DE000E1E719E0CA684968206801F0B3FF5021B3
:101DF000206806E0CA684968206801F0BCFF6021DD
:101E0000206801F0DCFECEE7CA684968206801F06E
:101E1000A1FF40212068F4E7226801461046F0E760
:101E20002DE9F0410D46040003D094F83D0018B1AF
:101E300008E00120BDE8F081002084F83C00204645
:101E400000F040F8022084F83D002068816844F2E8
:101E5000070291438160211D206801F035FE226850
:101E600090689169166A2B68AF69034340F20330AA
:101E7000814341EA0721A868EF6908434FF6FC4116
:101E80008843E96840EA0720014328692F6A000176
:101E900040EA0730084369686D6926F0AA0646EAF9
:101EA0000515294393602268906154F8460B01623E
:101EB000012004F81F09E0752076E0762077A075F0
:101EC0000020B7E770B586B0044614216846FEF7D7
:101ED00042FA4648236800244549022501268342E8
:101EE00019D143481430026842F0010202600068D0
:101EF00000F001000590086840F0100008600868D4
:101F0000694600F0100005904FF420600090CDE984
:101F10000154384845E0364A37481032B3F1804F13
:101F200018D0364EB34243D1136843F00203136016
:101F3000126802F0020205920A6842F001020A6089
:101F4000096801F001010591C0210091CDE901541A
:101F5000694647E0136843F001031360126802F01A
:101F6000010205920A6842F001020A600A6802F062
:101F7000010205920A6842F002020A60096801F053
:101F80000201059120210091CDE90154CDE90346DC
:101F90006946FFF771F908200090CDE9015418480F
:101FA0006946CDE9034600BFFFF766F906B070BD8C
:101FB00014488342FAD1106840F0040010601068A1
:101FC00000F004000590086840F008000860086808
:101FD000694600F0080005904FF440500090CDE9AC
:101FE00001540948CDE90345DEE700000000014047
:101FF000303802400010024000000240000400405F
:102000000004024000080040000C024070B590F847
:102010003E60044690F83F5090F8423090F84320DC
:10202000022021B104290ED0012E1BD114E0012E73
:1020300018D1012B16D184F83E0084F84200012209
:102040000021206820E0012D0CD1012A0AD184F85A
:102050003F0084F8430014E0012D03D1012B01D18E
:10206000012A01D0012070BD84F83E0084F83F00B1
:1020700084F8420084F8430001220021206801F026
:1020800087FD01220421206801F082FD206801689B
:1020900041F001010160002070BD704770B5044639
:1020A000006801694FF00005C943890715D4C1686C
:1020B000C943890711D4E91E0161012020772068F6
:1020C00080698007204602D0FFF7E7FF04E000F0B8
:1020D000F3F8204600F0A6F9257720680169C94386
:1020E000490717D4C168C943490713D46FF00401E5
:1020F0000161022020772068806910F4407F20462B
:1021000002D0FFF7CAFF04E000F0D6F8204600F046
:1021100089F9257720680169C943090716D4C16880
:10212000C943090712D46FF0080101610420207728
:102130002068C0698007204602D0FFF7AEFF04E0A8
:1021400000F0BAF8204600F06DF9257720680169A3
:10215000C943C90617D4C168C943C90613D46FF06F
:1021600010010161082020772068C06910F4407FC9
:10217000204602D0FFF791FF04E000F09DF82046D2
:1021800000F050F9257720680169C943C90708D1D3
:10219000C168C943C90704D1891E0161204600F006
:1021A000A7F920680169C943090609D4C168C94370
:1021B000090605D46FF0800101612046FFF7B4FCE9
:1021C00020680169C943490609D4C168C943490661
:1021D00005D46FF040010161204600F08AF92068C3
:1021E0000169C94389060BD4C168C943890607D46C
:1021F0006FF0200101612046BDE87040FFF795BCFB
:1022000070BD000030B587B0044614216846FEF763
:10221000A2F82268214C002121480223A24210D1B9
:10222000026842F001020260006800F001000590BF
:102230000F200090CDE90131CDE90313694619481B
:1022400014E0194D0324AA4214D1026842F004029A
:102250000260006800F0040005904FF47070009078
:10226000CDE90131CDE9031469461048FFF704F8C0
:1022700007B030BD0E4DAA42FAD1026842F01002FA
:102280000260006800F01000059060200090CDE929
:102290000131CDE9031469460648E7E7000C004028
:1022A00030380240000002400004014000080240B3
:1022B0000040014000100240704770B5044690F89D
:1022C0003C0000260D4601280FD0012084F83C0078
:1022D0006AB1042A1DD0082A2FD00C2A3FD001262B
:1022E000002084F83C00304670BD022070BD20689C
:1022F00001F06EFC2068816941F00801816120686D
:10230000816921F004018161206881692A69114392
:1023100011E0206801F08CFC2068816941F40061C3
:1023200081612068816921F480618161206881690F
:102330002A6941EA02218161D2E7206801F0AEFCFE
:102340002068C16941F00801C1612068C16921F0BC
:102350000401C1612068C1692A69114311E0206844
:1023600001F0D0FC2068C16941F40061C1612068BE
:10237000C16921F48061C1612068C1692A6941EAAB
:102380000221C161ACE710B5040003D094F83D0010
:1023900010B107E0012010BD002084F83C00204669
:1023A00000F01EF8022084F83D00211D206801F095
:1023B0008BFB012084F8460084F83E0084F83F003F
:1023C00084F8400084F8410084F8420084F8430017
:1023D00084F8440084F8450084F83D00002010BDD6
:1023E00008B500680C49884208D10C48016841F0E2
:1023F00008010160006800F008000BE0084988420D
:1024000009D10648001D016841F002010160006821
:1024100000F00200009008BD000C0040403802406F
:10242000000401407047000010B50446022249B183
:1024300004290ED0082913D094F84100012816D0A1
:10244000012010BD94F83E000128F9D184F83E2007
:102450000FE094F83F000128F2D184F83F2008E013
:1024600094F840000128EBD184F8402001E084F882
:1024700041200122206801F08BFB16492068164A92
:10248000884201D0904203D1436C43F4004343643B
:102490002068884213D0B0F1804F10D00F49884295
:1024A0000DD00F4988420AD00E49884207D0904289
:1024B00005D00D49884202D00C49884204D1816878
:1024C00001F00701062903D0016841F00101016014
:1024D000002010BD00000140000401400004004045
:1024E00000080040000C004000400140001800407F
:1024F0007047704770477047F8B501680446086830
:10250000CA684B6910F00F0F4FF0000559D003F067
:10251000010602F49077374365D0C10705D0D10595
:1025200003D5216C41F001012164410705D5D9078C
:1025300003D0216C41F002012164810705D5D90740
:1025400003D0216C41F004012164010707D502F09A
:102550002001314303D0216C41F008012164216C3A
:1025600000293AD0800604D5900602D5204602F014
:1025700018F820684069216CC0F38010090700D466
:1025800060B3204601F0E6FF20684069400621D58F
:102590002068143050E8001F21F0400140E800128C
:1025A000002AF5D1A06BA8B16C490165A06BFEF7BC
:1025B00016FD002811D0A06B016D01B0BDE8F04000
:1025C000084783060FD593060DD52046BDE8F84091
:1025D00001F0E7BF2046FFF78EFFF8BD2046FFF76A
:1025E0008AFF2564F8BD266B2023012E79D1C6060B
:1025F00077D5D60675D508684868009048694006C2
:1026000040D5A16B086840680004000CEAD0A28D98
:102610008242E7D9E085C869B0F5807F2DD0206877
:102620000C3050E8001F21F4807140E80012002AAD
:10263000F5D12068143050E8001F21F0010140E876
:102640000012002AF5D12068143050E8001F21F054
:10265000400140E80012002AF5D184F83E3025639D
:1026600020680C3050E8001F21F0100140E80012F3
:10267000002AF5D1A06BFEF769FCA08DE18D401A10
:1026800081B229E0A08DE18D401A81B2E08D002851
:10269000A8D00029A6D020680C3050E8002F22F4E2
:1026A000907240E80026002EF5D12068143050E8E2
:1026B000002F22F0010240E80026002EF5D184F818
:1026C0003E30256320680C3050E8002F22F01002C5
:1026D00040E80023002BF5D12046FFF70BFFF8BDA3
:1026E000FFE705062BD5150629D594F83D002128CE
:1026F000F5D1A068B0F5805F01D12069B0B1206A42
:10270000411C2162216800784860E08C401E000472
:10271000000CE084E3D12068C16821F08001C16031
:102720002068C16841F04001C160D8E7206A008894
:10273000C0F308004860206A801C2062E5E740067C
:10274000CDD55006CBD5CA68204622F04002CA60DB
:1027500084F83D3000F06BF9C1E700004545000802
:1027600070B5040004D094F83D00002510B106E0D7
:10277000012070BD84F83C50204600F023F824204E
:1027800084F83D002068C16821F40051C1602046F2
:1027900001F068FF2068016921F49041016120681F
:1027A000416921F02A0141612068C16841F400516A
:1027B000C1602564202084F83D0084F83E0000209C
:1027C00070BD00002DE9F04387B00646142168462D
:1027D000FDF7C1FD434F316843480222032307251B
:1027E0000024B94253D1404914310F6847F0100713
:1027F0000F60096801F010010591016841F00101C5
:1028000001600068694600F00100059058028DE8FB
:102810001500CDE903353548FEF72EFD354D34481A
:102820004FF000672860C5E901744FF48069C5E97D
:1028300003494FF480786C61C5E906482C6228464C
:102840006C62FEF7AFFC08B1FEF77EFBB563AE63CA
:10285000284D274860357830E5E802074020A5E894
:102860001102244845F814496030C5E906482C6235
:102870006C62FEF797FC08B1FEF766FB75630022F9
:1028800011462520AE63FEF767FE252024E01A4E90
:10289000B14223D1144910310E6846F480260E60EF
:1028A000096801F480210591016841F0020101608D
:1028B0000068694600F0020005904FF440608DE822
:1028C0001500CDE903350D48FEF7D6FC0022114670
:1028D0002720FEF741FE2720FEF730FE07B0BDE8B7
:1028E000F083000000100140303802400000024038
:1028F000406402406C040020004800400004024094
:1029000090F83E30202B0ED159B152B190F83C30A6
:10291000012B08D0012380F83C300023036301F031
:1029200027BF012070470220704700000D4910B5F5
:10293000884203D10C490D4A497811800C498842DC
:1029400003D10C480C494078088003220649054809
:10295000FFF7D6FFBDE81040032206490448FFF701
:10296000CFBF0000E403002000000020780000201A
:102970002804002003000020080000202DE9F8436F
:10298000044690F83D001F4616460D4620284CD1BF
:10299000C5B1BEB194F83C00012846D0012084F8AE
:1029A0003C004FF00008C4F84080212084F83D002E
:1029B000FEF764FDA6848146E684A068B0F5805FDA
:1029C00003D004E00120BDE8F883206928B12E4639
:1029D0005FF0000584F83C800EE00026FAE78021D5
:1029E000204601F0E0FEA0B9AEB116F8010B216857
:1029F0004860E08C401EE084E08C4B464FF00002C3
:102A000000970028EBD14FF04001204601F0CBFEAB
:102A100030B10320D7E735F8020BC0F30800E6E732
:102A2000202084F83D000020CDE70220CBE770474E
:102A3000FEE700002DE9F84F354C012251032068D4
:102A4000401C20603348FEF714FD334D216840F6EA
:102A5000E447286840F23C564FF4D26A40F6160B21
:102A6000884206DD53463A4659460020009600F05B
:102A700075F82968206840F62829814209DA6968D2
:102A8000814206DD4B463A4659460020009600F04A
:102A900065F86968206840F21458814209DAA9682B
:102AA000814206DD4B46424659460020009600F022
:102AB00055F8A968206840F6C417814209DAE96828
:102AC000814206DD4B46424659460020009700F001
:102AD00045F8E9682068814209DA2969814206DD02
:102AE0005346424659460020009700F037F82969BE
:102AF0002068814209DA6969814206DD534642460F
:102B000059460020009600F029F8BDE8F88F000033
:102B10006400002000100240FC00002010B50021DD
:102B20000C48FFF781FC04210A48FFF77DFC0821CF
:102B30000848FFF779FC0C210648FFF775FC0021D7
:102B40000548FFF771FCBDE8104004210248FFF77B
:102B50006BBC0000540300209C03002070B5074CA0
:102B6000049D26687063206881632068C2632068C2
:102B7000036403480068456370BD000054030020EF
:102B80009C03002008B540F23C5000904FF4D26303
:102B900040F6FC0240F616010020FFF7DFFF08BDFB
:102BA000084841690848026891420ADA0021016038
:102BB00006490320002208604FF400510448FEF744
:102BC00058BC7047FC000020640000206800002012
:102BD000001002400E4810B500F10C01B0F90020C1
:102BE0000A60B0F902301A444A60B0F90430D418CF
:102BF0008C60B0F9064023441A44CA60B0F908302A
:102C00001A440A61B0F90A001044486110BD00007E
:102C1000F000002006484FF4C87164220180428011
:102C200081804FF49671C1800281C8214181704733
:102C3000F00000200D4808B5016841F480010160F2
:102C40000068002200F48000009001213A20FEF785
:102C500083FC3A20FEF772FC002201214620FEF799
:102C60007BFCBDE808404620FEF768BC30380240D7
:102C70002DE9F04786B014216846FDF76CFB344817
:102C80000024016841F010010160016801F01001A9
:102C90000591016841F004010160016801F004013F
:102CA0000591016841F020010160016801F02001F7
:102CB0000591016841F080010160016801F0800127
:102CC0000591016841F001010160016801F0010115
:102CD0000591016841F002010160016801F0020103
:102CE0000591016841F0080101600068DFF8649017
:102CF00000F0080005900022FF214846FEF7B9FBCE
:102D0000DFF854A04FF40058002241465046FEF729
:102D1000B0FBFF2501260227CDE90274CDE900565C
:102D200069464846FEF7A8FACDF80080CDE901646F
:102D3000694650460394FEF79FFACDE90054694670
:102D400006480297FEF798FA06B0BDE8F087000043
:102D5000303802400014024000100240000C0240D3
:102D600010B58CB024216846FDF7F5FA002416480A
:102D7000099414490A94C0E900144FF6FF71C0E9A0
:102D800002410461446184610320CDE90004012013
:102D9000CDE902040494CDE90540079469460A4848
:102DA0000894FFF73DF808B1FEF7CEF8099409A999
:102DB00005480A94FEF7E4FE002801D0FEF7C4F8A7
:102DC0000CB010BD00000140A401002010B58CB073
:102DD00024216846FDF7BFFA0024154809944FF0F6
:102DE00080410A94C0E90014611EC0E902410461F7
:102DF00084610320CDE900040120CDE9020404949C
:102E0000CDE905400794694609480894FFF708F89A
:102E100008B1FEF799F8099409A905480A94FEF744
:102E2000AFFE002801D0FEF78FF80CB010BD0000F7
:102E3000EC01002010B58CB024216846FDF78BFA18
:102E400000241648099414490A94C0E900144FF666
:102E5000FF71C0E90241046184610320CDE90004EF
:102E60000120CDE902040494CDE9054007946946A8
:102E70000A480894FEF7D4FF08B1FEF765F80994F4
:102E800009A906480A94FEF77BFE002801D0FEF748
:102E90005BF80CB010BD00000004004034020020BC
:102EA00010B58CB024216846FDF755FA0024164869
:102EB000099414490A94C0E900144FF6FF71C0E95F
:102EC0000241046184610320CDE900040120CDE9C1
:102ED00002040494CDE90540079469460A48089421
:102EE000FEF79EFF08B1FEF72FF8099409A90648DE
:102EF0000A94FEF745FE002801D0FEF725F80CB035
:102F000010BD0000000800407C02002010B58AB00F
:102F1000002407941C2168460894FDF71CFA2248F7
:102F2000204901604721C0E901146321C0E903146D
:102F30008461FFF728FA08B1FEF706F8079407A99D
:102F400019480894FEF71CFE08B1FDF7FDFF60204C
:102F5000CDE9000402940022694613480494FFF767
:102F6000ACF908B1FDF7F0FF042269460E48FFF7FF
:102F7000A4F908B1FDF7E8FF082269460A48FFF7FF
:102F80009CF908B1FDF7E0FF0C2269460648FFF7FF
:102F900094F908B1FDF7D8FF0348FFF733F90AB0F9
:102FA00010BD0000000C0040C40200201CB500242D
:102FB0000E4800940C49019401604721C0E90114B6
:102FC00041F287318461C160FEF722FE08B1FDF74E
:102FD000BBFF0094694605480194FEF7D1FD002827
:102FE00001D0FDF7B1FF1CBD001400400C03002010
:102FF00010B592B000240F941C2168461094FDF780
:10300000AAF9202107A8FDF7A6F92C482A49016052
:103010002321C0E9011444F61F61C0E9031444618F
:103020008461FFF7B0F908B1FDF78EFF0F940FA987
:1030300022481094FEF7A4FD08B1FDF785FF60203B
:10304000CDE9000402940394049405940022694697
:103050001A480694FFF731F908B1FDF775FF04220D
:1030600069461648FFF729F908B1FDF76DFF0822F8
:1030700069461248FFF721F908B1FDF765FF0C22F8
:1030800069460E48FFF719F908B1FDF75DFF07948F
:10309000089409944FF400500A94CDE90B4007A915
:1030A00006480E94FEF742FD08B1FDF74DFF0348B8
:1030B000FFF7A8F812B010BD00040140540300202F
:1030C00010B58CB000240794089409941C2168461C
:1030D0000A94FDF740F91E481C4901602321C0E90C
:1030E000011444F61F61C0E903148461FEF790FDEA
:1030F00008B1FDF729FF4FF48050079007A9144845
:10310000FEF720FE08B1FDF71FFF1148FFF73BF95E
:1031100008B1FDF719FF6020CDE9000402940022F8
:1031200069460B480494FFF7C8F808B1FDF70CFF97
:10313000042269460648FFF7C0F808B1FDF704FF0E
:103140000348FFF75FF80CB010BD000000400140DD
:103150009C0300200C4810B50A4901604FF4165139
:103160004160002181600C22C160C0E904128161CC
:10317000C161FFF7F5FA002803D0BDE81040FDF764
:10318000E3BE10BD00100140E40300200C4810B560
:103190000A4901604FF416514160002181600C2200
:1031A000C160C0E904128161C161FFF7D9FA00284A
:1031B00003D0BDE81040FDF7C7BE10BD0048004079
:1031C00028040020FEE7000070B5084D04460122E7
:1031D00011462846FEF74DF9002202212846FEF747
:1031E00048F9034960420968486370BD0014024011
:1031F000C402002070B5084D044600220121284673
:10320000FEF737F9012202212846FEF732F903487A
:103210000068446370BD000000140240C402002036
:10322000002801DDFFF7E6BF01DAFFF7CDBF00F0B0
:1032300001B8000010B5084C002201212046FEF71D
:1032400018F9002202212046FEF713F90349002055
:103250000968486310BD000000140240C402002049
:1032600070B5084D0446012204212846FEF701F9F5
:10327000002208212846FEF7FCF80349604209684D
:10328000886370BD00140240C402002070B5084D70
:103290000446002204212846FEF7EBF8012208210B
:1032A0002846FEF7E6F803480068846370BD000016
:1032B00000140240C4020020002801DDFFF7E6BF31
:1032C00001DAFFF7CDBF00F001B8000010B5084CDF
:1032D000002204212046FEF7CCF8002208212046D7
:1032E000FEF7C7F8034900200968886310BD000095
:1032F00000140240C402002070B5084D04460122AB
:1033000020212846FEF7B5F8002210212846FEF7B6
:10331000B0F8034960420968C86370BD00140240F8
:10332000C402002070B5084D044600222021284622
:10333000FEF79FF8012210212846FEF79AF803486D
:103340000068C46370BD000000140240C402002085
:10335000002801DDFFF7E6BF01DAFFF7CDBF00F07F
:1033600001B8000010B5084C002220212046FEF7CD
:1033700080F8002210212046FEF77BF80349002048
:103380000968C86310BD000000140240C402002098
:1033900070B5084D0446012240212846FEF769F821
:1033A000002280212846FEF764F80349604209683C
:1033B000086470BD00140240C402002070B5084DBE
:1033C0000446002240212846FEF753F801228021BE
:1033D0002846FEF74EF803480068046470BD0000FC
:1033E00000140240C4020020002801DDFFF7E6BF00
:1033F00001DAFFF7CDBF00F001B8000010B5084CAE
:10340000002240212046FEF734F800228021204689
:10341000FEF72FF8034900200968086410BD00007A
:1034200000140240C402002070B5454CA4F12405EC
:10343000208830B9FDF772FDFDF762FD0120208084
:10344000A88000F03DF9A8883E4C012812D11E2129
:1034500040F24A60FDF794FC606858B9E06848B9EA
:10346000606938B9E06928B9FDF758FDFDF748FDF6
:103470000220A880A88802280FD11E2140F6DE0075
:10348000FDF7ECFC606840B9E06830B9606920B9CC
:10349000E06910B9A869401CA86194ED000A2A48A7
:1034A000F8EEC00A94ED010AB8EEC00A01F0D9F9AD
:1034B00094ED020A2448F8EEC00A94ED030A243081
:1034C000B8EEC00A01F0CDF994ED040A1E48F8EEFA
:1034D000C00A94ED050A4830B8EEC00A01F0C1F9FF
:1034E00094ED060A1848F8EEC00A94ED070A6C300D
:1034F000B8EEC00A01F0B5F9134C94ED070ABDEE21
:10350000C00A10EE100AFFF78BFE94ED100ABDEE14
:10351000C00A10EE100AFFF7CFFE94ED190ABDEEB7
:10352000C00A10EE100AFFF713FF94ED220ABDE85F
:103530007040BDEEC00A10EE100AFFF755BF000044
:103540004C000020D00000201401002070B5454C34
:10355000A4F12405608830B9FDF7E0FCFDF7D0FC4C
:1035600001206080A88000F0ABF8A8883E4C0128BC
:1035700012D11E2140F24C40FDF7CAFB606858B9D9
:10358000E06848B9606938B9E06928B9FDF7C6FC58
:10359000FDF7B6FC0220A880A88802280FD11E21C2
:1035A00040F6DE00FDF722FC606840B9E06830B903
:1035B000606920B9E06910B9A869401CA86194ED60
:1035C000000A2A48F8EEC00A94ED010AB8EEC00AD3
:1035D00001F047F994ED020A2448F8EEC00A94ED90
:1035E000030A2430B8EEC00A01F03BF994ED040A56
:1035F0001E48F8EEC00A94ED050A4830B8EEC00A3D
:1036000001F02FF994ED060A1848F8EEC00A94ED7F
:10361000070A6C30B8EEC00A01F023F9134C94EDA0
:10362000070ABDEEC00A10EE100AFFF7F9FD94ED8F
:10363000100ABDEEC00A10EE100AFFF73DFE94ED31
:10364000190ABDEEC00A10EE100AFFF781FE94EDD4
:10365000220ABDE87040BDEEC00A10EE100AFFF766
:10366000C3BE00004C000020D00000201401002048
:10367000FEE770470D480268506A01B20C480160CD
:10368000002151620B4A1268536A1BB28360516277
:10369000094A1268536A1BB203615162074A1268F1
:1036A000536A1BB28361516270470000A40100207D
:1036B000D0000020EC010020340200207C02002019
:1036C000F0B520480368586A1F4900B208601F48D7
:1036D0005C6AD0E9005224B2E6172C197241C0E9A5
:1036E000004200225A621A4B1C68636A1BB28B604C
:1036F000D0E90263656A2DB2EF1775197B41C0E905
:1037000002536262134B1B685C6A24B20C61D0E9FD
:1037100004645D6A2DB2EF1775197C41C0E9045449
:103720005A620D4B1B685C6A24B28C61D0E9065169
:103730005C6A24B2E6172C197141C0E906415A624D
:10374000F0BD0000A4010020D00000209000002067
:10375000EC010020340200207C02002070B5154DE1
:1037600002212846FDF780FE134C0121E061284626
:10377000FDF77AFEA06108212846FDF775FE60611D
:1037800004212846FDF770FE206120212846FDF720
:103790006BFEE06010212846FDF766FEA0608021E8
:1037A0002846FDF761FE606040212846FDF75CFE7B
:1037B000206070BD000C0240B000002008B540F24F
:1037C0003C5000904FF4D26340F6FC0240F61601E4
:1037D00040F6C410FFF7C2F908BD08B540F6C410A2
:1037E00000904FF4D26340F6FC0240F61601002030
:1037F000FFF7B4F908BD000010B5FFF73BFFFFF776
:10380000ADFF00F061FB00F0D7FA2A4C2A4894ED96
:10381000000AF8EEC00A94ED010AB8EEC00A01F001
:1038200020F894ED020A2448F8EEC00A94ED030A49
:103830002430B8EEC00A01F014F894ED040A1E48D2
:10384000F8EEC00A94ED050A4830B8EEC00A01F05F
:1038500008F894ED060A1848F8EEC00A94ED070A35
:103860006C30B8EEC00A00F0FCFF134C94ED070A70
:10387000BDEEC00A10EE100AFFF7D2FC94ED100A5C
:10388000BDEEC00A10EE100AFFF716FD94ED190AFE
:10389000BDEEC00A10EE100AFFF75AFD94ED220AA1
:1038A000BDEEC00A10EE100AFFF79EFDBDE8104005
:1038B000FFF768B9D00000201401002010B5FFF711
:1038C00061F9FCF765FFBDE81040FDF7CFB90000D6
:1038D0000E48816851B14068012810D0022810D0EC
:1038E000032810D0042810D100F034BD006801284E
:1038F00003D0022809D1FFF7E1BFFFF77DBF00F039
:10390000A3BD00F0B4BD00F0BBBD70476C0000204B
:1039100070470000104910B5012008600F490024CD
:1039200008600F490C600F490C600F49088000F0D7
:103930002FF800F035F80D4800224FF400510460D4
:103940000B4804600B4804600B48FDF792FDBDE88E
:103950001040FFF717B900006C0000207000002035
:1039600020000020740000202E00002040000020D5
:1039700044000020640000200010024003480021A1
:10398000018041808180C18070470000520000208A
:103990000248002101804180818070474C00002056
:1039A00003480021018041808180C1807047000070
:1039B0005A000020FDF768BD30B593B0302168464D
:1039C000FCF7C9FC14210CA8FCF7C5FC1C48002519
:1039D000016841F080510160006800F08050119052
:1039E0001848016841F4804101600068022400F435
:1039F0008040119001200090000401908001CDE9E9
:103A00000640062008904820CDE9090404200B90C8
:103A10006846FDF7BFFE08B172B6FEE70CA90F209D
:103A200081E831004FF48050CDE90F0502210CA848
:103A3000FDF7C4FD002801D072B6FEE713B030BD1B
:103A400040380240007000400248016841F47001B3
:103A50000160704788ED00E0174810B517494078BD
:103A60000880FCF7FBFD164C207868B90020FFF7B2
:103A7000D7FB0020FFF720FC0020FFF769FC0020A7
:103A8000FFF7B2FCFFF77EF82078012803D0022868
:103A900001D0032801D1FFF71BFF2078042801D1B2
:103AA000FCF7ACFD2078052801D1FFF733FFBDE816
:103AB00010400448FEF7F2BA000000207800002011
:103AC000060000200C030020F0B50268254C264DAE
:103AD000264E274F274B4FF0804CA04209D060451F
:103AE00007D0A84205D0B04203D0B84201D09842D6
:103AF00004D122F0700E4A6842EA0E02A0421BD0A6
:103B0000604519D0A84217D0B04215D0B84213D0A2
:103B1000984211D0184DA8420ED0184DA8420BD093
:103B2000174DA84208D0174DA84205D0164DA842FF
:103B300002D0164DA84203D122F44075CA682A4328
:103B40004D6922F080022A4302608A68C2620A68D4
:103B50008262A04201D0984201D10969016301212A
:103B60004161F0BD00000140000400400008004039
:103B7000000C0040000401400040014000440140AE
:103B80000048014000180040001C00400020004098
:103B900010B501F01F030121046A99408C430462AF
:103BA000016A9A401143016210BD10B5846842EA6F
:103BB000032224F47F440A432243826010BD8268BA
:103BC00022F070020A4342F0070181607047000052
:103BD000F0B5026A22F001020262036A4268846957
:103BE000124E24F073050C682C4323F002058B68F9
:103BF0002B430D4DA84201D0B04205D123F0080758
:103C0000CB683B4323F00403A84201D0B04205D166
:103C10004D6922F4407215438A692A4342608461E7
:103C2000496841630362F0BD0000014000040140A7
:103C3000F0B5026A22F010020262026A43688469E7
:103C40000D6824F4E64444EA05248D6822F020023D
:103C500042EA05120F4D104EA84201D0B04206D1E3
:103C6000CF6822F0800242EA071222F04002A84206
:103C700001D0B04207D14D6923F4406343EA850384
:103C80008D6943EA85034360846149688163026208
:103C9000F0BD00000000014000040140F0B5026AE0
:103CA00022F480720262026A4368C46922F40072DC
:103CB00024F073050C68124E2C438D6842EA0522ED
:103CC0000E4DA84201D0B04206D1CF6822F4006266
:103CD00042EA072222F48062A84201D0B04207D112
:103CE0004D6923F4405343EA05138D6943EA0513F4
:103CF0004360C4614968C1630262F0BD00000140D5
:103D00000004014030B5026A22F480520262046A63
:103D10004268C3690D6823F4E64343EA05238D68CE
:103D200024F4005444EA0534084DA84202D0084D5A
:103D3000A84204D14D6922F4804242EA85124260D1
:103D4000C36149680164046230BD000000000140A5
:103D50000004014010B5036A046A24F001040462FF
:103D6000846924F0F00444EA021423F00A020A43AE
:103D70008461026210BD10B5036A23F01003036270
:103D80008369046A23F4704343EA023224F0A003F7
:103D900043EA01118261016210BD08B540F23C5056
:103DA00000904FF4D26340F6FC0240F6160140F258
:103DB000DC50FEF7D3FE08BD22480368C26943EA1F
:103DC0000201012913D04268816942EA0103012BF3
:103DD0001AD04269816841EA0203012B1ED0D0E962
:103DE000031041EA0002012A22D000200AE06FF00D
:103DF0000E00012B01D0014613E0012A01D00A2157
:103E00001EE00F20FCF756BB012A02D0002117202C
:103E100016E00129F5D01721002011E0012902D078
:103E20000F2114200CE0012AEBD014210F2007E011
:103E3000012901D01221F4E70128E2D01421122037
:103E4000FCF7EEBBB000002070B51948194C0168B2
:103E500081B9416871B9816861B9C16851B90169B5
:103E600041B9416931B9816921B9C06910B9606846
:103E7000401C60606068502816DD0F4800256560B2
:103E800000880E4E042810D0206840F6FF73401CB6
:103E9000206003220AA10B48FEF770FD2068052868
:103EA00002DD02203060256070BD0320306070BDEF
:103EB000B0000020100000202A0000206800002030
:103EC00035353500280400202DE9F0412248234CE7
:103ED000016881B9416871B9816861B9C16851B936
:103EE000016941B9416931B9816921B9C06910B924
:103EF000E068401CE060E06801260025184F50286B
:103F00000CDD206910B926613D70A66040F6FF7394
:103F1000032214A11448FEF731FDE560A0680128D2
:103F200014D13878002811D01049042802D10A8809
:103F3000032A0BD10E4A1278904209D00888032830
:103F400006D00C49022008602561A560BDE8F0811B
:103F500009480660F8E70000B000002010000020CB
:103F60000700002035353500280400202E000020F1
:103F7000060000206C000020740000201248016838
:103F800000291FD1416800291CD18168002919D15D
:103F9000C168002916D10169002913D1416900299E
:103FA00010D1816900290DD1C06900280AD10748C4
:103FB0004169491C4161502904DD002141610449E6
:103FC0000420086070470000B000002010000020AE
:103FD000700000200848416908480268914209DAE7
:103FE0000021016006490220002208600103054803
:103FF000FDF73FBA70470000FC000020640000207D
:10400000700000200010024070B53A4CA4F1320557
:10401000208830B9FCF782FFFCF772FF0120208076
:104020002881FFF74DFB2889334C01280FD11E2131
:104030004FF4FA60FCF712FF606840B9E06830B9ED
:10404000606920B9E06910B9E869401CE86194ED45
:10405000000A2A48F8EEC00A94ED010AB8EEC00A38
:1040600000F0FFFB94ED020A2448F8EEC00A94ED3C
:10407000030A2430B8EEC00A00F0F3FB94ED040A02
:104080001E48F8EEC00A94ED050A4830B8EEC00AA2
:1040900000F0E7FB94ED060A1848F8EEC00A94ED2C
:1040A000070A6C30B8EEC00A00F0DBFB134C94ED4D
:1040B000070ABDEEC00A10EE100AFFF7B1F894ED42
:1040C000100ABDEEC00A10EE100AFFF7F5F894EDE5
:1040D000190ABDEEC00A10EE100AFFF739F994ED87
:1040E000220ABDE87040BDEEC00A10EE100AFFF7CC
:1040F0007BB900005A000020D000002014010020ED
:1041000070B5484CA4F13205608830B9FCF706FF61
:10411000FCF7F6FE012060802881FFF7D1FA28899C
:10412000414C012819D11E2140F2A460FCF7C0FDCA
:10413000606890B9E06880B9606970B9E06960B999
:10414000286A401C2862642807DDFCF7E7FEFCF7BC
:10415000D7FE0220288100202862288902280FD15A
:104160001E2140F26C70FCF70BFE606840B9E068FD
:1041700030B9606920B9E06910B9E869401CE861AC
:1041800094ED000A2948F8EEC00A94ED010AB8EE51
:10419000C00A00F066FB94ED020A2448F8EEC00A5B
:1041A00094ED030A2430B8EEC00A00F05AFB94EDF7
:1041B000040A1E48F8EEC00A94ED050A4830B8EE2D
:1041C000C00A00F04EFB94ED060A1848F8EEC00A4B
:1041D00094ED070A6C30B8EEC00A00F042FB134CB5
:1041E00094ED070ABDEEC00A10EE100AFFF718F8AA
:1041F00094ED100ABDEEC00A10EE100AFFF75CF84D
:1042000094ED190ABDEEC00A10EE100AFFF7A0F8EF
:1042100094ED220ABDE87040BDEEC00A10EE100A0F
:10422000FFF7E2B85A000020D0000020140100205F
:1042300070B5454CA4F13205A08830B9FCF76EFE8C
:10424000FCF75EFE0120A0802881FFF739FA28895B
:104250003E4C012812D114214FF47A70FCF7FEFD78
:10426000606858B9E06848B9606938B9E06928B948
:10427000FCF754FEFCF744FE02202881288902281E
:104280000FD1142141F6F420FCF77AFD606840B9A3
:10429000E06830B9606920B9E06910B9E869401C8C
:1042A000E86194ED000A2A48F8EEC00A94ED010A8C
:1042B000B8EEC00A00F0D5FA94ED020A2448F8EEF0
:1042C000C00A94ED030A2430B8EEC00A00F0C9FA1F
:1042D00094ED040A1E48F8EEC00A94ED050A483031
:1042E000B8EEC00A00F0BDFA94ED060A1848F8EEE0
:1042F000C00A94ED070A6C30B8EEC00A00F0B1FABB
:10430000134C94ED070ABDEEC00A10EE100AFEF73A
:1043100087FF94ED100ABDEEC00A10EE100AFEF7FA
:10432000CBFF94ED190ABDEEC00A10EE100AFFF79C
:104330000FF894ED220ABDE87040BDEEC00A10EE01
:10434000100AFFF751B800005A000020D0000020EA
:104350001401002070B5394CA4F13205E08830B961
:10436000FCF7DCFDFCF7CCFD0120E0802881FFF7A5
:10437000A7F92889324C01280ED11E2140F6980059
:10438000FCF76CFD606838B9E06828B9606918B955
:10439000E06908B9FFF721FA94ED000A2948F8EE20
:1043A000C00A94ED010AB8EEC00A00F05AFA94ED82
:1043B000020A2448F8EEC00A94ED030A2430B8EE4D
:1043C000C00A00F04EFA94ED040A1E48F8EEC00A46
:1043D00094ED050A4830B8EEC00A00F042FA94EDB8
:1043E000060A1848F8EEC00A94ED070A6C30B8EED9
:1043F000C00A00F036FA134C94ED070ABDEEC00A6D
:1044000010EE100AFEF70CFF94ED100ABDEEC00A84
:1044100010EE100AFEF750FF94ED190ABDEEC00A27
:1044200010EE100AFEF794FF94ED220ABDE87040EA
:10443000BDEEC00A10EE100AFEF7D6BF5A000020EB
:10444000D00000201401002010B5FEF7F3FAFFF7AA
:10445000C1FD0020FEF7E4FE0020FEF72DFF002046
:10446000FEF776FFBDE810400020FEF7BDBF10B597
:10447000FEF788FBFCF79AF9BDE81040FCF708BC92
:1044800010B5FFF7F7F8FFF769F9FFF777FDFFF7CA
:1044900093FC2A4C2A4894ED000AF8EEC00A94EDE9
:1044A000010AB8EEC00A00F0DCF994ED020A2448D3
:1044B000F8EEC00A94ED030A2430B8EEC00A00F00A
:1044C000D0F994ED040A1E48F8EEC00A94ED050AEE
:1044D0004830B8EEC00A00F0C4F994ED060A184856
:1044E000F8EEC00A94ED070A6C30B8EEC00A00F08E
:1044F000B8F9134C94ED070ABDEEC00A10EE100A8D
:10450000FEF78EFE94ED100ABDEEC00A10EE100A02
:10451000FEF7D2FE94ED190ABDEEC00A10EE100AA5
:10452000FEF716FF94ED220ABDEEC00A10EE100A47
:10453000FEF75AFFBDE81040FEF724BBD000002074
:104540001401002010B5806B0021C185C184FDF7E6
:10455000D2FF10BD01680C3151E8002F22F4907297
:1045600041E80023002BF5D10168143151E8002FF8
:1045700022F0010241E80023002BF5D1016B012953
:1045800009D101680C3151E8002F22F0100241E8F6
:104590000023002BF5D1202180F83E10002101637B
:1045A000704708B590F83E10222901D0022008BDBE
:1045B00082684FF480539A4201D1016921B1816A26
:1045C0009A421BD04AB10AE00268816A5268C2F37B
:1045D00008020A80816A891C08E0026972B10268D7
:1045E000526802F07F020A70816A491C8162C18DA3
:1045F000491E0904090CC18503D019E002685268FC
:10460000F1E70168CA6822F02002CA600168CA683E
:1046100022F48072CA6001684A6922F001024A618C
:10462000202180F83E10016B012903D0FEF77EF9AE
:10463000002008BD0021016301680C3151E8002F02
:1046400022F0100241E80023002BF5D101680A682E
:10465000D20602D50A6849680091818DFDF74AFFAC
:10466000E6E7000070B5044600680169E26821F4DD
:104670004051114301612169A068E2690843616901
:10468000114308432168CA6849F20C639A43024304
:10469000CA6020684169A26921F4407111434161F7
:1046A00031492068884202D03049884202D1FDF762
:1046B0002FF801E0FDF71CF8E269002319216425B9
:1046C0003226B2F5004F626828D0A0FB0101930F9B
:1046D0009200FBF7C9FD0146B0FBF5F06FF0180240
:1046E000504301EB800006EB0010B0FBF5F000F04A
:1046F000F002B1FBF5F002EB0012B1FBF5F06FF048
:104700001803584301EB800006EB0010B0FBF5F0F6
:1047100000F00F0021681044886070BDA0FB01010B
:1047200092185B41FBF7A0FD0146B0FBF5F00201DA
:10473000B1FBF5F06FF01803584301EB800006EB76
:10474000C000B0FBF5F000F0F80002EB4002B1FB56
:10475000F5F0584301EB800006EBC000B0FBF5F02C
:1047600000F00700D6E700000010014000140140EF
:1047700081628285C28500210164222280F83E2068
:1047800080F83C100168CA6842F48072CA6001680F
:104790004A6942F001024A610068C16841F02001A3
:1047A000C160002070472DE9F041984617460E463B
:1047B0000446069D27E0681C25D02DB1FCF75EFE5F
:1047C000A0EB0800A8421ED920680C3050E8001F5A
:1047D00021F4D07140E80012002AF5D1206814308D
:1047E00050E8001F21F0010140E80012002AF5D135
:1047F000202084F83D0084F83E00002084F83C002E
:104800000320BDE8F0812068006836EA000004D08B
:104810000020B842CFD00020F3E70120F9E70000E4
:1048200010B50548FDF768FEBDE8104003220349B6
:104830000148FEF765B80000E403002000000020F6
:1048400010B50548FDF758FEBDE8104003220349A6
:104850000148FEF755B8000028040020030000209E
:10486000FEE790ED031A70EE600A80ED041AC0EDC9
:10487000030A30EEC10A90ED021A20EE011A90ED03
:10488000000A00EE801A80ED071A90ED050AD0EDBF
:10489000011A00EEA10A80ED050AD0ED060AF1EE3C
:1048A000601AB4EEE10AF1EE10FA02D2B0EE610A3B
:1048B00006E0B4EEE00AF1EE10FA01DBB0EE600AB9
:1048C00080ED050A31EE000A80ED070A90ED081A26
:1048D000F1EE410AB4EEE00AF1EE10FA02D2B0EEC7
:1048E000600A06E0B4EEC10AF1EE10FA01DBB0EEA8
:1048F000410A80ED070A7047C0ED061A80ED082ACC
:1049000080EC030A70470907090E002804DB00F158
:10491000E02080F80014704700F00F0000F1E02064
:1049200080F8141D70470000FCF7B6FDFFF744F84F
:10493000FEF79EF9FEF714FAFEF748FAFEF77AFA48
:10494000FEF7AEFAFEF7E2FAFEF730FBFEF750FB99
:10495000FEF7B6FBFEF7FEFBFEF76CF9FEF716FC62
:10496000FCF7B2FA1048FDF7ADF9FBF761FEFBF773
:1049700057FDFEF7D3F8FEF74DF9FEF72BF9FEF7DA
:10498000FDFFFFF705F8FFF70BF80322074908487A
:10499000FDF7B6FF032207490748FDF7B1FF00BF47
:1049A000FBF774FEFCE700000C0300200000002071
:1049B000E403002003000020280400204FF0407092
:1049C000E1EE100A704700061016000610160000EF
:1049D00000000000000001020304060708090000AF
:1049E0000000010203040000084A00080000002043
:1049F00090000000C4010008984A000890000020C0
:104A0000000B0000E00100080000000000000000B2
:104A10000000000000000000000000000000000096
:104A20000000000000000000000000000000000086
:104A30000100010001000100010000000000000071
:104A40000000000000000000000000000000000066
:104A50000000000000000000000000000000000056
:104A60000000000000000000000000000000000046
:104A70000100000001000000010000000000000033
:104A80000000000000000000010000001000000015
:084A9000000000000024F40006
:040000050800018965
:00000001FF
